{
  "contractName": "CryptoBoard",
  "abi": [
    {
      "constant": true,
      "inputs": [
        {
          "name": "",
          "type": "uint256"
        }
      ],
      "name": "messages",
      "outputs": [
        {
          "name": "writerAddress",
          "type": "address"
        },
        {
          "name": "nickName",
          "type": "bytes32"
        },
        {
          "name": "message",
          "type": "bytes32"
        },
        {
          "name": "topic",
          "type": "bytes32"
        },
        {
          "name": "postTime",
          "type": "uint256"
        }
      ],
      "payable": false,
      "stateMutability": "view",
      "type": "function"
    },
    {
      "constant": true,
      "inputs": [
        {
          "name": "_index",
          "type": "uint256"
        }
      ],
      "name": "getWriterAccount",
      "outputs": [
        {
          "name": "",
          "type": "address"
        }
      ],
      "payable": false,
      "stateMutability": "view",
      "type": "function"
    },
    {
      "constant": true,
      "inputs": [],
      "name": "getMessageCount",
      "outputs": [
        {
          "name": "",
          "type": "uint256"
        }
      ],
      "payable": false,
      "stateMutability": "view",
      "type": "function"
    },
    {
      "constant": true,
      "inputs": [
        {
          "name": "_index",
          "type": "uint256"
        }
      ],
      "name": "getMessage",
      "outputs": [
        {
          "name": "",
          "type": "address"
        },
        {
          "name": "",
          "type": "bytes32"
        },
        {
          "name": "",
          "type": "bytes32"
        },
        {
          "name": "",
          "type": "bytes32"
        },
        {
          "name": "",
          "type": "uint256"
        }
      ],
      "payable": false,
      "stateMutability": "view",
      "type": "function"
    },
    {
      "constant": true,
      "inputs": [],
      "name": "owner",
      "outputs": [
        {
          "name": "",
          "type": "address"
        }
      ],
      "payable": false,
      "stateMutability": "view",
      "type": "function"
    },
    {
      "constant": true,
      "inputs": [],
      "name": "getWriterCount",
      "outputs": [
        {
          "name": "",
          "type": "uint256"
        }
      ],
      "payable": false,
      "stateMutability": "view",
      "type": "function"
    },
    {
      "constant": true,
      "inputs": [
        {
          "name": "",
          "type": "uint256"
        }
      ],
      "name": "writerAccounts",
      "outputs": [
        {
          "name": "",
          "type": "address"
        }
      ],
      "payable": false,
      "stateMutability": "view",
      "type": "function"
    },
    {
      "constant": false,
      "inputs": [
        {
          "name": "_nickName",
          "type": "bytes32"
        },
        {
          "name": "_message",
          "type": "bytes32"
        },
        {
          "name": "_topic",
          "type": "bytes32"
        }
      ],
      "name": "postMessage",
      "outputs": [],
      "payable": false,
      "stateMutability": "nonpayable",
      "type": "function"
    },
    {
      "constant": false,
      "inputs": [
        {
          "name": "newOwner",
          "type": "address"
        }
      ],
      "name": "transferOwnership",
      "outputs": [],
      "payable": false,
      "stateMutability": "nonpayable",
      "type": "function"
    },
    {
      "constant": true,
      "inputs": [],
      "name": "getWriterAccounts",
      "outputs": [
        {
          "name": "",
          "type": "address[]"
        }
      ],
      "payable": false,
      "stateMutability": "view",
      "type": "function"
    },
    {
      "inputs": [],
      "payable": false,
      "stateMutability": "nonpayable",
      "type": "constructor"
    },
    {
      "anonymous": false,
      "inputs": [
        {
          "indexed": false,
          "name": "writerAddress",
          "type": "address"
        },
        {
          "indexed": false,
          "name": "nickName",
          "type": "bytes32"
        },
        {
          "indexed": false,
          "name": "message",
          "type": "bytes32"
        },
        {
          "indexed": false,
          "name": "topic",
          "type": "bytes32"
        },
        {
          "indexed": false,
          "name": "postTime",
          "type": "uint256"
        }
      ],
      "name": "MessageInfo",
      "type": "event"
    },
    {
      "anonymous": false,
      "inputs": [
        {
          "indexed": true,
          "name": "previousOwner",
          "type": "address"
        },
        {
          "indexed": true,
          "name": "newOwner",
          "type": "address"
        }
      ],
      "name": "OwnershipTransferred",
      "type": "event"
    }
  ],
  "bytecode": "0x6060604052341561000f57600080fd5b336000806101000a81548173ffffffffffffffffffffffffffffffffffffffff021916908373ffffffffffffffffffffffffffffffffffffffff160217905550336000806101000a81548173ffffffffffffffffffffffffffffffffffffffff021916908373ffffffffffffffffffffffffffffffffffffffff160217905550610b3b8061009e6000396000f3006060604052600436106100a4576000357c0100000000000000000000000000000000000000000000000000000000900463ffffffff1680630d80fefd146100a95780631ed038201461014057806331933916146101a357806386f79edb146101cc5780638da5cb5b146102635780638ecc8b68146102b8578063be655cee146102e1578063d4a0eada14610344578063f2fde38b14610385578063f41aabf3146103be575b600080fd5b34156100b457600080fd5b6100ca6004808035906020019091905050610428565b604051808673ffffffffffffffffffffffffffffffffffffffff1673ffffffffffffffffffffffffffffffffffffffff1681526020018560001916600019168152602001846000191660001916815260200183600019166000191681526020018281526020019550505050505060405180910390f35b341561014b57600080fd5b610161600480803590602001909190505061048d565b604051808273ffffffffffffffffffffffffffffffffffffffff1673ffffffffffffffffffffffffffffffffffffffff16815260200191505060405180910390f35b34156101ae57600080fd5b6101b66104d1565b6040518082815260200191505060405180910390f35b34156101d757600080fd5b6101ed60048080359060200190919050506104de565b604051808673ffffffffffffffffffffffffffffffffffffffff1673ffffffffffffffffffffffffffffffffffffffff1681526020018560001916600019168152602001846000191660001916815260200183600019166000191681526020018281526020019550505050505060405180910390f35b341561026e57600080fd5b6102766105be565b604051808273ffffffffffffffffffffffffffffffffffffffff1673ffffffffffffffffffffffffffffffffffffffff16815260200191505060405180910390f35b34156102c357600080fd5b6102cb6105e3565b6040518082815260200191505060405180910390f35b34156102ec57600080fd5b61030260048080359060200190919050506105f0565b604051808273ffffffffffffffffffffffffffffffffffffffff1673ffffffffffffffffffffffffffffffffffffffff16815260200191505060405180910390f35b341561034f57600080fd5b610383600480803560001916906020019091908035600019169060200190919080356000191690602001909190505061062f565b005b341561039057600080fd5b6103bc600480803573ffffffffffffffffffffffffffffffffffffffff16906020019091905050610829565b005b34156103c957600080fd5b6103d161097e565b6040518080602001828103825283818151815260200191508051906020019060200280838360005b838110156104145780820151818401526020810190506103f9565b505050509050019250505060405180910390f35b60028181548110151561043757fe5b90600052602060002090600502016000915090508060000160009054906101000a900473ffffffffffffffffffffffffffffffffffffffff16908060010154908060020154908060030154908060040154905085565b600060018281548110151561049e57fe5b906000526020600020900160009054906101000a900473ffffffffffffffffffffffffffffffffffffffff169050919050565b6000600280549050905090565b60008060008060006002868154811015156104f557fe5b906000526020600020906005020160000160009054906101000a900473ffffffffffffffffffffffffffffffffffffffff1660028781548110151561053657fe5b90600052602060002090600502016001015460028881548110151561055757fe5b90600052602060002090600502016002015460028981548110151561057857fe5b90600052602060002090600502016003015460028a81548110151561059957fe5b9060005260206000209060050201600401549450945094509450945091939590929450565b6000809054906101000a900473ffffffffffffffffffffffffffffffffffffffff1681565b6000600180549050905090565b6001818154811015156105ff57fe5b90600052602060002090016000915054906101000a900473ffffffffffffffffffffffffffffffffffffffff1681565b600280548060010182816106439190610a12565b9160005260206000209060050201600060a0604051908101604052803373ffffffffffffffffffffffffffffffffffffffff16815260200187600019168152602001866000191681526020018560001916815260200142815250909190915060008201518160000160006101000a81548173ffffffffffffffffffffffffffffffffffffffff021916908373ffffffffffffffffffffffffffffffffffffffff160217905550602082015181600101906000191690556040820151816002019060001916905560608201518160030190600019169055608082015181600401555050506001805480600101828161073a9190610a44565b9160005260206000209001600033909190916101000a81548173ffffffffffffffffffffffffffffffffffffffff021916908373ffffffffffffffffffffffffffffffffffffffff160217905550507fb4410b78de29a14a18ffce69af68f005352265b0703ce7a2c56ad6d7f6419e693384848442604051808673ffffffffffffffffffffffffffffffffffffffff1673ffffffffffffffffffffffffffffffffffffffff1681526020018560001916600019168152602001846000191660001916815260200183600019166000191681526020018281526020019550505050505060405180910390a1505050565b6000809054906101000a900473ffffffffffffffffffffffffffffffffffffffff1673ffffffffffffffffffffffffffffffffffffffff163373ffffffffffffffffffffffffffffffffffffffff1614151561088457600080fd5b600073ffffffffffffffffffffffffffffffffffffffff168173ffffffffffffffffffffffffffffffffffffffff16141515156108c057600080fd5b8073ffffffffffffffffffffffffffffffffffffffff166000809054906101000a900473ffffffffffffffffffffffffffffffffffffffff1673ffffffffffffffffffffffffffffffffffffffff167f8be0079c531659141344cd1fd0a4f28419497f9722a3daafe3b4186f6b6457e060405160405180910390a3806000806101000a81548173ffffffffffffffffffffffffffffffffffffffff021916908373ffffffffffffffffffffffffffffffffffffffff16021790555050565b610986610a70565b6001805480602002602001604051908101604052809291908181526020018280548015610a0857602002820191906000526020600020905b8160009054906101000a900473ffffffffffffffffffffffffffffffffffffffff1673ffffffffffffffffffffffffffffffffffffffff16815260200190600101908083116109be575b5050505050905090565b815481835581811511610a3f57600502816005028360005260206000209182019101610a3e9190610a84565b5b505050565b815481835581811511610a6b57818360005260206000209182019101610a6a9190610aea565b5b505050565b602060405190810160405280600081525090565b610ae791905b80821115610ae357600080820160006101000a81549073ffffffffffffffffffffffffffffffffffffffff0219169055600182016000905560028201600090556003820160009055600482016000905550600501610a8a565b5090565b90565b610b0c91905b80821115610b08576000816000905550600101610af0565b5090565b905600a165627a7a72305820559ad09919d827d382956484419dda60745e3364afc53af447785d3d729e80410029",
  "source": "pragma solidity ^0.4.18;\n\nimport 'zeppelin-solidity/contracts/ownership/Ownable.sol';\n\ncontract CryptoBoard is Ownable {\n    \n    struct Message {\n        address writerAddress;\n        bytes32 nickName;\n        bytes32 message;\n        bytes32 topic;\n        uint256 postTime;\n    }\n    \n    address[] public writerAccounts;\n    Message[] public messages;\n    \n    function CryptoBoard() public {\n        owner = msg.sender;\n    }\n    \n    event MessageInfo(\n        address writerAddress,\n        bytes32 nickName,\n        bytes32 message,\n        bytes32 topic,\n        uint256 postTime\n    );\n    \n    function postMessage(bytes32 _nickName, bytes32 _message, bytes32 _topic) public {\n        \n        messages.push(Message({\n            writerAddress: msg.sender,\n            nickName: _nickName,\n            message: _message,\n            topic: _topic,\n            postTime: now\n        }));\n        \n        writerAccounts.push(msg.sender);\n        \n        MessageInfo(msg.sender, _nickName, _message, _topic, now);\n    }\n    \n    function getWriterAccounts() view public returns (address[]) {\n        return writerAccounts;\n    }\n\n    function getWriterAccount(uint256 _index) view public returns (address) {\n        return writerAccounts[_index];\n    }\n\n    function getWriterCount() view public returns (uint) {\n        return writerAccounts.length;\n    }\n\n    function getMessage(uint256 _index) view public returns (address, bytes32, bytes32, bytes32, uint256) {\n        return (messages[_index].writerAddress, messages[_index].nickName, messages[_index].message, messages[_index].topic, messages[_index].postTime);\n    }\n\n    function getMessageCount() view public returns (uint) {\n        return messages.length;\n    }\n        \n}\n",
  "sourcePath": "/Users/yuichi/ethereum/crypto-board/contracts/CryptoBoard.sol",
  "compiler": {
    "name": "solc",
    "version": "0.4.18+commit.9cf6e910.Emscripten.clang"
  },
  "schemaVersion": "1.0.1",
  "updatedAt": "2018-01-24T17:27:03.797Z"
}