{
  "contractName": "CryptoBoard",
  "abi": [
    {
      "constant": true,
      "inputs": [
        {
          "name": "",
          "type": "uint256"
        }
      ],
      "name": "messages",
      "outputs": [
        {
          "name": "writerAddress",
          "type": "address"
        },
        {
          "name": "nickName",
          "type": "string"
        },
        {
          "name": "message",
          "type": "string"
        },
        {
          "name": "topic",
          "type": "bytes32"
        },
        {
          "name": "postTime",
          "type": "uint256"
        }
      ],
      "payable": false,
      "stateMutability": "view",
      "type": "function"
    },
    {
      "constant": true,
      "inputs": [
        {
          "name": "_index",
          "type": "uint256"
        }
      ],
      "name": "getWriterAccount",
      "outputs": [
        {
          "name": "",
          "type": "address"
        }
      ],
      "payable": false,
      "stateMutability": "view",
      "type": "function"
    },
    {
      "constant": true,
      "inputs": [],
      "name": "getMessageCount",
      "outputs": [
        {
          "name": "",
          "type": "uint256"
        }
      ],
      "payable": false,
      "stateMutability": "view",
      "type": "function"
    },
    {
      "constant": false,
      "inputs": [
        {
          "name": "_nickName",
          "type": "string"
        },
        {
          "name": "_message",
          "type": "string"
        },
        {
          "name": "_topic",
          "type": "bytes32"
        }
      ],
      "name": "postMessage",
      "outputs": [],
      "payable": false,
      "stateMutability": "nonpayable",
      "type": "function"
    },
    {
      "constant": true,
      "inputs": [
        {
          "name": "_index",
          "type": "uint256"
        }
      ],
      "name": "getMessage",
      "outputs": [
        {
          "name": "",
          "type": "address"
        },
        {
          "name": "",
          "type": "string"
        },
        {
          "name": "",
          "type": "string"
        },
        {
          "name": "",
          "type": "bytes32"
        },
        {
          "name": "",
          "type": "uint256"
        }
      ],
      "payable": false,
      "stateMutability": "view",
      "type": "function"
    },
    {
      "constant": true,
      "inputs": [],
      "name": "owner",
      "outputs": [
        {
          "name": "",
          "type": "address"
        }
      ],
      "payable": false,
      "stateMutability": "view",
      "type": "function"
    },
    {
      "constant": true,
      "inputs": [],
      "name": "getWriterCount",
      "outputs": [
        {
          "name": "",
          "type": "uint256"
        }
      ],
      "payable": false,
      "stateMutability": "view",
      "type": "function"
    },
    {
      "constant": true,
      "inputs": [
        {
          "name": "",
          "type": "uint256"
        }
      ],
      "name": "writerAccounts",
      "outputs": [
        {
          "name": "",
          "type": "address"
        }
      ],
      "payable": false,
      "stateMutability": "view",
      "type": "function"
    },
    {
      "constant": false,
      "inputs": [
        {
          "name": "newOwner",
          "type": "address"
        }
      ],
      "name": "transferOwnership",
      "outputs": [],
      "payable": false,
      "stateMutability": "nonpayable",
      "type": "function"
    },
    {
      "constant": true,
      "inputs": [],
      "name": "getWriterAccounts",
      "outputs": [
        {
          "name": "",
          "type": "address[]"
        }
      ],
      "payable": false,
      "stateMutability": "view",
      "type": "function"
    },
    {
      "inputs": [],
      "payable": false,
      "stateMutability": "nonpayable",
      "type": "constructor"
    },
    {
      "anonymous": false,
      "inputs": [
        {
          "indexed": false,
          "name": "writerAddress",
          "type": "address"
        },
        {
          "indexed": false,
          "name": "nickName",
          "type": "string"
        },
        {
          "indexed": false,
          "name": "message",
          "type": "string"
        },
        {
          "indexed": false,
          "name": "topic",
          "type": "bytes32"
        },
        {
          "indexed": false,
          "name": "postTime",
          "type": "uint256"
        }
      ],
      "name": "MessageInfo",
      "type": "event"
    },
    {
      "anonymous": false,
      "inputs": [
        {
          "indexed": true,
          "name": "previousOwner",
          "type": "address"
        },
        {
          "indexed": true,
          "name": "newOwner",
          "type": "address"
        }
      ],
      "name": "OwnershipTransferred",
      "type": "event"
    }
  ],
  "bytecode": "0x6060604052341561000f57600080fd5b336000806101000a81548173ffffffffffffffffffffffffffffffffffffffff021916908373ffffffffffffffffffffffffffffffffffffffff160217905550336000806101000a81548173ffffffffffffffffffffffffffffffffffffffff021916908373ffffffffffffffffffffffffffffffffffffffff16021790555061104e8061009e6000396000f3006060604052600436106100a4576000357c0100000000000000000000000000000000000000000000000000000000900463ffffffff1680630d80fefd146100a95780631ed0382014610234578063319339161461029757806355e4811d146102c057806386f79edb1461036d5780638da5cb5b146104be5780638ecc8b6814610513578063be655cee1461053c578063f2fde38b1461059f578063f41aabf3146105d8575b600080fd5b34156100b457600080fd5b6100ca6004808035906020019091905050610642565b604051808673ffffffffffffffffffffffffffffffffffffffff1673ffffffffffffffffffffffffffffffffffffffff1681526020018060200180602001856000191660001916815260200184815260200183810383528781815460018160011615610100020316600290048152602001915080546001816001161561010002031660029004801561019d5780601f106101725761010080835404028352916020019161019d565b820191906000526020600020905b81548152906001019060200180831161018057829003601f168201915b50508381038252868181546001816001161561010002031660029004815260200191508054600181600116156101000203166002900480156102205780601f106101f557610100808354040283529160200191610220565b820191906000526020600020905b81548152906001019060200180831161020357829003601f168201915b505097505050505050505060405180910390f35b341561023f57600080fd5b61025560048080359060200190919050506106a5565b604051808273ffffffffffffffffffffffffffffffffffffffff1673ffffffffffffffffffffffffffffffffffffffff16815260200191505060405180910390f35b34156102a257600080fd5b6102aa6106e9565b6040518082815260200191505060405180910390f35b34156102cb57600080fd5b61036b600480803590602001908201803590602001908080601f0160208091040260200160405190810160405280939291908181526020018383808284378201915050505050509190803590602001908201803590602001908080601f01602080910402602001604051908101604052809392919081815260200183838082843782019150505050505091908035600019169060200190919050506106f6565b005b341561037857600080fd5b61038e60048080359060200190919050506109bc565b604051808673ffffffffffffffffffffffffffffffffffffffff1673ffffffffffffffffffffffffffffffffffffffff16815260200180602001806020018560001916600019168152602001848152602001838103835287818151815260200191508051906020019080838360005b838110156104185780820151818401526020810190506103fd565b50505050905090810190601f1680156104455780820380516001836020036101000a031916815260200191505b50838103825286818151815260200191508051906020019080838360005b8381101561047e578082015181840152602081019050610463565b50505050905090810190601f1680156104ab5780820380516001836020036101000a031916815260200191505b5097505050505050505060405180910390f35b34156104c957600080fd5b6104d1610bdf565b604051808273ffffffffffffffffffffffffffffffffffffffff1673ffffffffffffffffffffffffffffffffffffffff16815260200191505060405180910390f35b341561051e57600080fd5b610526610c04565b6040518082815260200191505060405180910390f35b341561054757600080fd5b61055d6004808035906020019091905050610c11565b604051808273ffffffffffffffffffffffffffffffffffffffff1673ffffffffffffffffffffffffffffffffffffffff16815260200191505060405180910390f35b34156105aa57600080fd5b6105d6600480803573ffffffffffffffffffffffffffffffffffffffff16906020019091905050610c50565b005b34156105e357600080fd5b6105eb610da5565b6040518080602001828103825283818151815260200191508051906020019060200280838360005b8381101561062e578082015181840152602081019050610613565b505050509050019250505060405180910390f35b60028181548110151561065157fe5b90600052602060002090600502016000915090508060000160009054906101000a900473ffffffffffffffffffffffffffffffffffffffff1690806001019080600201908060030154908060040154905085565b60006001828154811015156106b657fe5b906000526020600020900160009054906101000a900473ffffffffffffffffffffffffffffffffffffffff169050919050565b6000600280549050905090565b6002805480600101828161070a9190610e39565b9160005260206000209060050201600060a0604051908101604052803373ffffffffffffffffffffffffffffffffffffffff1681526020018781526020018681526020018560001916815260200142815250909190915060008201518160000160006101000a81548173ffffffffffffffffffffffffffffffffffffffff021916908373ffffffffffffffffffffffffffffffffffffffff16021790555060208201518160010190805190602001906107c4929190610e6b565b5060408201518160020190805190602001906107e1929190610e6b565b506060820151816003019060001916905560808201518160040155505050600180548060010182816108139190610eeb565b9160005260206000209001600033909190916101000a81548173ffffffffffffffffffffffffffffffffffffffff021916908373ffffffffffffffffffffffffffffffffffffffff160217905550507f66c1421ce3ece7d0604371e7250cdd01fb4a0092ad225cb6974fa4929b14874a3384848442604051808673ffffffffffffffffffffffffffffffffffffffff1673ffffffffffffffffffffffffffffffffffffffff16815260200180602001806020018560001916600019168152602001848152602001838103835287818151815260200191508051906020019080838360005b838110156109125780820151818401526020810190506108f7565b50505050905090810190601f16801561093f5780820380516001836020036101000a031916815260200191505b50838103825286818151815260200191508051906020019080838360005b8381101561097857808201518184015260208101905061095d565b50505050905090810190601f1680156109a55780820380516001836020036101000a031916815260200191505b5097505050505050505060405180910390a1505050565b60006109c6610f17565b6109ce610f17565b6000806002868154811015156109e057fe5b906000526020600020906005020160000160009054906101000a900473ffffffffffffffffffffffffffffffffffffffff16600287815481101515610a2157fe5b9060005260206000209060050201600101600288815481101515610a4157fe5b9060005260206000209060050201600201600289815481101515610a6157fe5b90600052602060002090600502016003015460028a815481101515610a8257fe5b906000526020600020906005020160040154838054600181600116156101000203166002900480601f016020809104026020016040519081016040528092919081815260200182805460018160011615610100020316600290048015610b295780601f10610afe57610100808354040283529160200191610b29565b820191906000526020600020905b815481529060010190602001808311610b0c57829003601f168201915b50505050509350828054600181600116156101000203166002900480601f016020809104026020016040519081016040528092919081815260200182805460018160011615610100020316600290048015610bc55780601f10610b9a57610100808354040283529160200191610bc5565b820191906000526020600020905b815481529060010190602001808311610ba857829003601f168201915b505050505092509450945094509450945091939590929450565b6000809054906101000a900473ffffffffffffffffffffffffffffffffffffffff1681565b6000600180549050905090565b600181815481101515610c2057fe5b90600052602060002090016000915054906101000a900473ffffffffffffffffffffffffffffffffffffffff1681565b6000809054906101000a900473ffffffffffffffffffffffffffffffffffffffff1673ffffffffffffffffffffffffffffffffffffffff163373ffffffffffffffffffffffffffffffffffffffff16141515610cab57600080fd5b600073ffffffffffffffffffffffffffffffffffffffff168173ffffffffffffffffffffffffffffffffffffffff1614151515610ce757600080fd5b8073ffffffffffffffffffffffffffffffffffffffff166000809054906101000a900473ffffffffffffffffffffffffffffffffffffffff1673ffffffffffffffffffffffffffffffffffffffff167f8be0079c531659141344cd1fd0a4f28419497f9722a3daafe3b4186f6b6457e060405160405180910390a3806000806101000a81548173ffffffffffffffffffffffffffffffffffffffff021916908373ffffffffffffffffffffffffffffffffffffffff16021790555050565b610dad610f2b565b6001805480602002602001604051908101604052809291908181526020018280548015610e2f57602002820191906000526020600020905b8160009054906101000a900473ffffffffffffffffffffffffffffffffffffffff1673ffffffffffffffffffffffffffffffffffffffff1681526020019060010190808311610de5575b5050505050905090565b815481835581811511610e6657600502816005028360005260206000209182019101610e659190610f3f565b5b505050565b828054600181600116156101000203166002900490600052602060002090601f016020900481019282601f10610eac57805160ff1916838001178555610eda565b82800160010185558215610eda579182015b82811115610ed9578251825591602001919060010190610ebe565b5b509050610ee79190610fb5565b5090565b815481835581811511610f1257818360005260206000209182019101610f119190610fb5565b5b505050565b602060405190810160405280600081525090565b602060405190810160405280600081525090565b610fb291905b80821115610fae57600080820160006101000a81549073ffffffffffffffffffffffffffffffffffffffff0219169055600182016000610f859190610fda565b600282016000610f959190610fda565b6003820160009055600482016000905550600501610f45565b5090565b90565b610fd791905b80821115610fd3576000816000905550600101610fbb565b5090565b90565b50805460018160011615610100020316600290046000825580601f10611000575061101f565b601f01602090049060005260206000209081019061101e9190610fb5565b5b505600a165627a7a72305820df11c5a69abe7c312139b6cf3e49b2331727b4d4dc8f5738b3b59ee49bd4f9100029",
  "source": "pragma solidity ^0.4.18;\nimport 'zeppelin-solidity/contracts/ownership/Ownable.sol';\n\ncontract CryptoBoard is Ownable {\n    \n    struct Message {\n        address writerAddress;\n        string nickName;\n        string message;\n        bytes32 topic;\n        uint256 postTime;\n    }\n    \n    address[] public writerAccounts;\n    Message[] public messages;\n    \n    function CryptoBoard() public {\n        owner = msg.sender;\n    }\n    \n    event MessageInfo(\n        address writerAddress,\n        string nickName,\n        string message,\n        bytes32 topic,\n        uint256 postTime\n    );\n    \n    function postMessage(string _nickName, string _message, bytes32 _topic) public {\n        \n        messages.push(Message({\n            writerAddress: msg.sender,\n            nickName: _nickName,\n            message: _message,\n            topic: _topic,\n            postTime: now\n        }));\n        \n        writerAccounts.push(msg.sender);\n        \n        MessageInfo(msg.sender, _nickName, _message, _topic, now);\n    }\n    \n    function getWriterAccounts() view public returns (address[]) {\n        return writerAccounts;\n    }\n\n    function getWriterAccount(uint256 _index) view public returns (address) {\n        return writerAccounts[_index];\n    }\n\n    function getWriterCount() view public returns (uint) {\n        return writerAccounts.length;\n    }\n\n    function getMessage(uint256 _index) view public returns (address, string, string, bytes32, uint256) {\n        return (messages[_index].writerAddress, messages[_index].nickName, messages[_index].message, messages[_index].topic, messages[_index].postTime);\n    }\n\n    function getMessageCount() view public returns (uint) {\n        return messages.length;\n    }\n        \n}\n",
  "sourcePath": "/Users/yuichi/ethereum/crypto-board/contracts/CryptoBoard.sol",
  "compiler": {
    "name": "solc",
    "version": "0.4.18+commit.9cf6e910.Emscripten.clang"
  },
  "schemaVersion": "1.0.1",
  "updatedAt": "2018-01-25T13:31:55.458Z"
}